{
  "contractName": "EventGenerate",
  "abi": [
    {
      "anonymous": false,
      "inputs": [
        {
          "indexed": true,
          "internalType": "uint256",
          "name": "id",
          "type": "uint256"
        },
        {
          "indexed": true,
          "internalType": "uint256",
          "name": "date",
          "type": "uint256"
        },
        {
          "indexed": false,
          "internalType": "string",
          "name": "value",
          "type": "string"
        }
      ],
      "name": "NotifyEvent",
      "type": "event"
    },
    {
      "constant": false,
      "inputs": [
        {
          "internalType": "string",
          "name": "value",
          "type": "string"
        }
      ],
      "name": "notifyThisEvent",
      "outputs": [],
      "payable": false,
      "stateMutability": "nonpayable",
      "type": "function"
    }
  ],
  "bytecode": "0x608060405234801561001057600080fd5b506101d4806100206000396000f3fe608060405234801561001057600080fd5b506004361061002b5760003560e01c8063d194b54714610030575b600080fd5b6100e96004803603602081101561004657600080fd5b810190808035906020019064010000000081111561006357600080fd5b82018360208201111561007557600080fd5b8035906020019184600183028401116401000000008311171561009757600080fd5b91908080601f016020809104026020016040519081016040528093929190818152602001838380828437600081840152601f19601f8201169050808301925050505050505091929192905050506100eb565b005b426000547fec988adab996f91c309ba9918ac87d402e47b7f9f485d6347d60e832cc812276836040518080602001828103825283818151815260200191508051906020019080838360005b83811015610151578082015181840152602081019050610136565b50505050905090810190601f16801561017e5780820380516001836020036101000a031916815260200191505b509250505060405180910390a360008081548092919060010191905055505056fea265627a7a723158209dfbcdb6e084e1bf9b6fd6ea8b0eb058c7d59d35a4378c1d02921e472ffdef4b64736f6c63430005110032",
  "source": "pragma solidity ^0.5.16;\r\n\r\ncontract EventGenerate {\r\n    // 設定event\r\n    event NotifyEvent(uint256 indexed id, uint256 indexed date, string value);\r\n    uint256 nextId;\r\n    //這邊 functino 內的變數指定的時候需要另外再說是存在於 memory或是 storage，此範例使用的是memory\r\n    function notifyThisEvent(string memory value) public {\r\n        emit NotifyEvent(nextId, now, value);\r\n        nextId++;\r\n    }\r\n}",
  "sourcePath": "C:\\BCFS1121\\lab2_web3\\contracts\\EventGenerate.sol",
  "compiler": {
    "name": "solc",
    "version": "0.5.17+commit.d19bba13.Emscripten.clang"
  },
  "schemaVersion": "3.4.10",
  "updatedAt": "2022-11-23T02:57:58.371Z",
  "networkType": "ethereum",
  "devdoc": {
    "methods": {}
  },
  "userdoc": {
    "methods": {}
  }
}