{
  "contractName": "SecretNumber",
  "abi": [
    {
      "constant": true,
      "inputs": [],
      "name": "getData",
      "outputs": [
        {
          "internalType": "uint256",
          "name": "",
          "type": "uint256"
        }
      ],
      "payable": false,
      "stateMutability": "view",
      "type": "function"
    },
    {
      "constant": false,
      "inputs": [
        {
          "internalType": "uint256",
          "name": "_data",
          "type": "uint256"
        }
      ],
      "name": "setData",
      "outputs": [],
      "payable": false,
      "stateMutability": "nonpayable",
      "type": "function"
    },
    {
      "constant": false,
      "inputs": [
        {
          "internalType": "uint256",
          "name": "_data",
          "type": "uint256"
        }
      ],
      "name": "setDataForMe",
      "outputs": [],
      "payable": false,
      "stateMutability": "nonpayable",
      "type": "function"
    }
  ],
  "bytecode": "0x608060405234801561001057600080fd5b50610108806100206000396000f3fe6080604052348015600f57600080fd5b5060043610603c5760003560e01c80633bc5de301460415780635b4b73a914605d578063bee78499146088575b600080fd5b604760b3565b6040518082815260200191505060405180910390f35b608660048036036020811015607157600080fd5b810190808035906020019092919050505060bc565b005b60b160048036036020811015609c57600080fd5b810190808035906020019092919050505060c6565b005b60008054905090565b8060008190555050565b606481016000819055505056fea265627a7a72315820ce5e301684b3282e04c23dd29f784e6484a7bcf94c2a84e799ae020fca18458f64736f6c63430005110032",
  "source": "pragma solidity ^0.5.16;\r\n\r\ncontract SecretNumber{\r\n\r\n    // unit == unit256 兩者是一樣的 unit 算是縮寫\r\n    uint data;\r\n    function getData() public view returns (uint){\r\n        return data;\r\n    }\r\n    function setData(uint _data) public {\r\n        data = _data;\r\n    }\r\n    function setDataForMe(uint _data) public {\r\n        data = _data + 100;\r\n    }\r\n\r\n}",
  "sourcePath": "C:\\BCFS1121\\lab2_web3\\contracts\\SecretNumber.sol",
  "compiler": {
    "name": "solc",
    "version": "0.5.17+commit.d19bba13.Emscripten.clang"
  },
  "schemaVersion": "3.4.10",
  "updatedAt": "2022-11-22T06:04:05.288Z",
  "networkType": "ethereum",
  "devdoc": {
    "methods": {}
  },
  "userdoc": {
    "methods": {}
  }
}