{
  "contractName": "SecretNumber",
  "abi": [
    {
      "constant": true,
      "inputs": [],
      "name": "getData",
      "outputs": [
        {
          "internalType": "uint256",
          "name": "",
          "type": "uint256"
        }
      ],
      "payable": false,
      "stateMutability": "view",
      "type": "function"
    },
    {
      "constant": false,
      "inputs": [
        {
          "internalType": "uint256",
          "name": "_data",
          "type": "uint256"
        }
      ],
      "name": "setData",
      "outputs": [],
      "payable": false,
      "stateMutability": "nonpayable",
      "type": "function"
    }
  ],
  "bytecode": "0x608060405234801561001057600080fd5b5060c68061001f6000396000f3fe6080604052348015600f57600080fd5b506004361060325760003560e01c80633bc5de301460375780635b4b73a9146053575b600080fd5b603d607e565b6040518082815260200191505060405180910390f35b607c60048036036020811015606757600080fd5b81019080803590602001909291905050506087565b005b60008054905090565b806000819055505056fea265627a7a72315820921268712b125b7278157ddba8a12d14b5d51320d54254d14d1e8665da67085964736f6c63430005100032",
  "source": "pragma solidity ^0.5.16;\r\ncontract SecretNumber {\r\n    uint256 data;\r\n    function getData() public view returns (uint256){\r\n        return data;\r\n    }\r\n    function setData(uint256 _data) public {\r\n        data = _data;\r\n    }\r\n}",
  "sourcePath": "C:\\BCFS1121\\lab3_metamask\\contracts\\SecretNumber.sol",
  "compiler": {
    "name": "solc",
    "version": "0.5.16+commit.9c3226ce.Emscripten.clang"
  },
  "schemaVersion": "3.4.10",
  "updatedAt": "2022-11-28T03:48:11.766Z",
  "networkType": "ethereum",
  "devdoc": {
    "methods": {}
  },
  "userdoc": {
    "methods": {}
  }
}